:1000000005308A00FB2D00000A108A100A118207B1
:1000100028340C3401340634D4326D38201DA0123B
:1000200033173133A012E321201020000A29481091
:1000300020103A10A519AE186610A5122010200045
:100040003730840083130008031933280630F80082
:10005000F701F70B2928F80B28287B30F700F70B5E
:100060002F28800B262808003E1838280812392827
:100070000816831608128312BE18402888124128D9
:1000800088168316881283123E19482808134928B7
:100090000817831608138312BE1950288813512895
:1000A000881783168813000083120814831608101B
:1000B0000230F700F70B5A285D2800008312081061
:1000C0008316081083120800BF018316081600303B
:1000D0008312081A0130BF04831688160030831279
:1000E000881A0130F7000310F70D7708BF04831654
:1000F000081700308312081B0130F700F70DF70DC9
:10010000FC30F7057708BF04831688170030831288
:10011000881B0130F700F70DF70DF70DF830F705E4
:100120007708BF043F08F8000800831608108810FD
:10013000081183128810831688100816881608176D
:1001400088178312081583160811000083120814FB
:10015000831608100000831264207808BE0008107F
:100160008316081000008312081483160810B8289C
:10017000B9280000831264207808BD000810831697
:100180000810081288120813881383123E0EF70015
:10019000F030F70577083D04F8007808BD00BD1F72
:1001A000D32883169D28BB08031DD8288810D9287A
:1001B0008814831688100000831208118316081112
:1001C0000000831208108316081083123C0EBD0035
:1001D0000F30BD053D08BE0034203C080F39BD007E
:1001E000BE003420080083160812881208138813F2
:1001F0000810881008118312881083168810831243
:1002000008118316081183120810831608100F3086
:100210008312B70020200130A9002908033C031CE9
:1002200019290330BE0034200530B7002020A90A68
:100230000D290230BE0034200530B7002020A9016E
:100240002908033C031C2D2929080420AA00BB010E
:100250002A08BC009520A90A20298A110A12052E15
:100260008316861483120610831606103729382940
:10027000000083120614831606103E293F29000051
:1002800083128610831686104529462900008312A2
:100290000610831606100230F700F70B4D2950297F
:1002A00000008312061483160610562957290000F1
:1002B00086145A295B290000831206108316061043
:1002C0008312080083168614831206108316061004
:1002D0000230F700F70B6A296D2900008312A9018B
:1002E0002908083C031C8A290614831606100230CC
:1002F000F700F70B79297C2900008312061083167A
:1003000006100230F700F70B8329862900008312BC
:10031000A90A702930211430B70020208A110A124E
:10032000062E8030BE000630F700F70B952900003E
:10033000BD013D08073C031CBB29061083160610AF
:1003400083123C083E050319A92983168614AC299B
:100350008312861083168610AD29AE290000831201
:10036000061483160610B429B52900000310831261
:10037000BE0CBD0A9929061083160610BF29C02994
:100380000000861483123F1086183F14061483164B
:100390000610CA29CB290000831206108316061006
:1003A000003083123F180130F800080083168614CD
:1003B0008312061083160610DD29DE290000831241
:1003C000BD01BC013D08753C031CFA29031DEC2945
:1003D0003C082F3C031CFA29831686148312861CC2
:1003E000FA291030F700F70BF3290000BC0A0319B3
:1003F000BD0AE2290800BE01BD01BC013C08073C62
:10040000031C192A0310BD0DBE0D06148316061019
:10041000092A0A2A000086148312861C102A3D1419
:10042000061083160610142A152A00008312BC0A2F
:10043000FE298610831686101D2A1E2A00008312AC
:100440000614831606100230F700F70B252A282A17
:10045000000083120610831606102E2A2F2A000091
:1004600086148312BC013C08073C031C4E2A03106F
:10047000BD0DBE0D0614831606103E2A3F2A00004D
:1004800086148312861C452A3D1406108316061016
:10049000492A4A2A00008312BC0A332A831686148A
:1004A000512A522A000083120614831606100230C5
:1004B000F700F70B592A5C2A0000831206108316F6
:1004C000061083123D08F8003E08F90008008E303F
:1004D000F7005208F8005108F900FA01F808031D66
:1004E0007B2A7908F800F9010830F702F808031DA3
:1004F0007B2AF701832A0310F81B822AF90DF80DD5
:10050000F7037B2AF813080059080319F42AE100BD
:100510005D080319F42AE1070318952A7F30E102E8
:10052000031CF42A0319F42A992A8130E1070318DD
:10053000F42A6108F700F801F901FA015A08E50008
:10054000E5175B08E4005C08E3001830E100E20115
:10055000631CC22A6008FA07031CB42AF90A031DA7
:10056000B42AF80A0319E2175F08F907031CBB2A2B
:10057000F80A0319E2175E08DB00DB175B08F807CF
:100580000318E217E20DF80CF90CFA0CE50CE40C78
:10059000E30C0310E10BA72A0130F7070318F42A34
:1005A000F81BD92AE50DFA0DF90DF80DF70303191B
:1005B000F42AE51FEA2AFA0A031DEA2AF90A031DAA
:1005C000EA2AF80A031DEA2AF80CF90CFA0CF70AD1
:1005D0000319F42A5A08E2005E08E206E21FF22A32
:1005E000F817F82AF813F82AF701F801F901FA01C7
:1005F000080080308318DA06DF01E0015608DE00CB
:100600005A08DE0655080319E92BDD00F7005908E2
:100610000319F22BDD0203198E2B031C4C2B5A08F5
:10062000E300E3175B08E2005C08E100E00103106F
:10063000E30CE20CE10CE00CDD0B162BDE1F232B90
:100640005F14062C5F105D105F1658308400831312
:100650001B2C5F12DE1B362B5D1C412BE30CE20CC6
:10066000E10CE00CF70A0319012C412BE31B442B8E
:100670000310E00DE10DE20DE30DF7030319012C6A
:10068000362B5F17AE2B5F135608DE00DE1F4A2B9A
:10069000E317FA2BE313FA2B5908DD00F70055088E
:1006A000DD025608E300E3175708E2005808E100AE
:1006B000E0010310E30CE20CE10CE00CDD0B582B25
:1006C000DE1F652BDF14062CDF105D10DF165C309B
:1006D000840083131B2CDF12DE1B782B5D1C832B05
:1006E000E30CE20CE10CE00CF70A0319012C832B5C
:1006F000E31B862B0310E00DE10DE20DE30DF70384
:100700000319012C782BDF17AE2BDF135A08DE00FC
:10071000DE1F8C2BE317FA2BE313FA2B5A08E300A6
:10072000E3175B08E2005C08E100DE1F9B2BE3138C
:100730005F15062C5F11E0015D10583084008313B3
:100740001B2CDE1BC42B5608DE005D1CAE2BE30CFD
:10075000E20CE10CE00CF70A0319012CE01FBF2B9F
:10076000E10A031DBF2BE20A031DBF2BE30A031D91
:10077000BF2BE30CE20CE10CF70A0319012C5F1B01
:10078000432BDF1B852BE32B8030E306E31FCC2BB1
:10079000062C5A08DE00D92B5608DE00E308031D9C
:1007A000D92BE208031DD92BE108031DD92BF70132
:1007B000FA2BE31BE32B0310E00DE10DE20DE30D3B
:1007C000F70BD92B012CDE1FE72BE317FA2BE313D2
:1007D000FA2B5908F7005A08E3005B08E2005C08AE
:1007E000E100FA2B5508F7005608E3005708E2002D
:1007F0005808E1006308F8006208F9006108FA008F
:10080000392CF701F801F901FA01392CE001E1096D
:10081000E209E309E009E00A031D142CE10A031DC3
:10082000142CE20A0319E30A5F18222BDF18642B49
:100830005F199A2BC92B0008E107031C252CE20A3B
:10084000031D252CE30A03195D1484030008E20745
:10085000031C2D2CE30A03195D1484030008801F78
:10086000803AE30703185D145F1A292BDF1A6B2BFC
:10087000A12B0800380B3D2C402C4030B900412CF6
:10088000B90101303702B90739088038BA00BB0115
:100890003A08BC00952008003608073A03195A2C7C
:1008A0000B3A03195F2C063A0319672C023A031915
:1008B0006D2C722C0130B700B8003A24772CBB01A4
:1008C0000130BC0095200230B7002020772C013089
:1008D000B7000230B8003A24772CBB011030BC00BE
:1008E0009520772C0130BB003608BC00952008000D
:1008F0000B08AA008B13831603178C170C14000027
:1009000000000318AA2C83120C087F390313AB00D4
:1009100003170D080313AC0003170F080313AD00F2
:100920002B08B6004C242C0803178D0003132D0848
:1009300003178F0083168C170C140000000083121D
:100940000313A90BA42CA72C83160317AA2CC92CBC
:100950008316031783120C0D0E0D7F390313AB00A2
:1009600003170D080313AC0003170F080313AD00A2
:100970002B08B6004C242C0803178D0003132D08F8
:1009800003178F008D0A03198F0A03100313A90B95
:100990007B2CAA1B8B1708008318D12C3E308400B7
:1009A0008313F701F801F901FA01BE01BF01C0018B
:1009B000C1013D083C043B043A0403190F2D2030CB
:1009C000C2000310B60DB70DB80DB90DBE0DBF0DA9
:1009D000C00DC10D3D084102031DF82C3C0840022A
:1009E000031DF82C3B083F02031DF82C3A083E0279
:1009F000031C092D3A08BE023B08031C3B0FBF0233
:100A00003C08031C3C0FC0023D08031C3D0FC10203
:100A10000314F70DF80DF90DFA0DC20BE12C3E0889
:100A20008000840A3F088000840A40088000840A0D
:100A30004108800008000408AE002D08B00003192A
:100A40003A2D2C08DC002B08DB002A08DA002908E4
:100A5000D900E001DF012030DE008230DD00842299
:100A60007A08AC007908AB007808AA007708A900DA
:100A7000B00B212D2C08B9002B08B8002A08B700AC
:100A80002908B6003608B63CB600FA013708BA00A5
:100A9000B7170310B70CB80CB90CFA0CF90CF80C1A
:100AA000F70CB60B492DBA1F602DF709F809F909A3
:100AB000FA09F70A0319F80A0319F90A0319FA0AD5
:100AC0007A08AC007908AB007808AA007708A9007A
:100AD000AC1F772DAE03AE16A909AA09AB09AC0964
:100AE000A90A0319AA0A0319AB0A0319AC0A3B3075
:100AF000B5009A30B400CA30B300B2010A30B00079
:100B00002D080319AE0A83142930840083132C089E
:100B1000B9002B08B8002A08B7002908B600350824
:100B2000BD003408BC003308BB003208BA00CC2436
:100B30007808F708031DAF2D2D0A30020319AF2DD9
:100B40002E080319B12D0F3930020319A92D0318EE
:100B5000E12DAE1BE12D2E1BB12D2030DD2D2030DF
:100B6000AE05AE1EBF2DAE122D08031DAE037708D5
:100B7000AE002D30B6004C242E08F700AE012D0833
:100B80003002031DCD2D7708AE002E30B6004C2468
:100B90002E08F7002030AE0500303030AE1EDD2DBF
:100BA000AE122D08031DAE037708AE002D30B6003F
:100BB0004C242E08F700AE013030F7077708B60056
:100BC0004C2483103508B9003408B8003308B70046
:100BD0003208B600BD01BC01BB010A30BA00CC240A
:100BE0007A08B5007908B4007808B3007708B20035
:100BF000B00B832D080083161F149F141F159F111F
:100C000083131F3083058312F3286229AA01A901E7
:100C1000A801A701A601A50130210330BC00912144
:100C200039107818391439181F2ED621FB2179086C
:100C3000BB007808BA003A08F8003B08F9007908C8
:100C4000AA007808A90030210530BC009121391094
:100C5000781839143918362ED621FB217908BB00B3
:100C60007808BA003A08F8003B08F9007908AC00A7
:100C70007808AB002A08BA002908B9002C08BC0083
:100C80002B08BB003A08D2003908D10067227A0845
:100C9000C8007908C7007808C6007708C5007A0838
:100CA000DC007908DB007808DA007708D9000A3020
:100CB000E000D730DF002330DE007830DD00842212
:100CC0007A08C8007908C7007808C6007708C50008
:100CD00083147A08D8007908D7007808D6007708F6
:100CE000D500DC01DB012030DA008430D900F922A4
:100CF0007A08A4007908A3007808A2007708A10068
:100D00003C08D2003B08D10067227A08C400790869
:100D1000C3007808C2007708C1004408DC0043081B
:100D2000DB004208DA004108D9005430E000E3302B
:100D3000DF002530DE007A30DD0084227A08C8002A
:100D40007908C7007808C6007708C5004408DC00A9
:100D50004308DB004208DA004108D9004408E000FB
:100D60004308DF004208DE004108DD0084227A08E3
:100D7000CC007908CB007808CA007708C9007A0847
:100D8000DC007908DB007808DA007708D900A230A7
:100D9000E000E730DF003B30DE006C30DD00842215
:100DA00083144808D8004708D7004608D6004508ED
:100DB000D5007A08DC007908DB007808DA007708CB
:100DC000D900F9227A08C8007908C7007808C60057
:100DD0007708C50083147A08D8007908D700780806
:100DE000D6007708D500DC01DB01DA018130D900BB
:100DF000F9227A08B0007908AF007808AE007708C9
:100E0000AD0083142408D8002308D7002208D60098
:100E10002108D500DC01DB014830DA008330D9003D
:100E2000F9227A08C8007908C7007808C600770850
:100E3000C500AC30DC00C530DB002730DA00713093
:100E4000D9004408E0004308DF004208DE00410802
:100E5000DD00842283100A30D800D730D700233039
:100E6000D6007830D5007A08DC007908DB007808F5
:100E7000DA007708D900F9224808DC004708DB00CF
:100E80004608DA004508D9007A08E0007908DF0052
:100E90007808DE007708DD0084227A08C800790827
:100EA000C7007808C6007708C50083107A08D80004
:100EB0007908D7007808D6007708D5003008DC001C
:100EC0002F08DB002E08DA002D08D900F9227A0855
:100ED000A8007908A7007808A6007708A5000C30BC
:100EE00003178D0000308F00031007300313A90093
:100EF0007824023084002408AC002308AB002208C8
:100F0000AA002108A9000130AD001B252030B60041
:100F10004C24DF30B6004C24133003178D00003012
:100F20008F00031404300313A9007824163003172C
:100F30008D0000308F00031008300313A9007824BF
:100F4000023084002808AC002708AB002608AA005D
:100F50002508A9000130AD001B252030B6004C2427
:100F60002530B6004C242030B6004C242030B6008A
:100F70004C242030B6004C240230A900FA30B700CF
:0A0F80002020A90BBE2F062E6300EF
:02400E00323F3F
:00000001FF
;PIC16F877
;CRC=22FB  CREATED="21-Oca-19 00:40"
